:060000000A128A11122809
:10000800FE00030E83120313B9000408BA000A089D
:10001800BB007F08BC000A128A11422E0A128A11FC
:10002800152883134230840053300A128A158B2412
:100038000A128A1183010A128A11BE2B831603132E
:10004800BA00AA30B300EB2925303B0603192D2846
:100058002E2838283A0884003B0883138000013092
:10006800B0003008BA07EB29B801B901B701412837
:1000780037150130B0003008A907290884000A1292
:100088008A150A200A128A11B000B1013108003A13
:1000980003194F2854283008303A03193C285428AB
:1000A800290884000A128A150A200A128A110A12DB
:1000B8008A15BC240A128A11031C63286428B228F2
:1000C80083160313B801B9010A3083120313BD0064
:1000D8000030BE0083160313390883120313C000CF
:1000E80083160313380883120313BF000A128A15F4
:1000F800D0250A128A11831203133E0883160313AC
:10010800B900831203133D0883160313B8002908A6
:1001180084000A128A150A200A128A11D03EB000F9
:10012800FF3003180030B1003008B8070318B90AC7
:100138003108B9070130B0003008A9072908840040
:100148000A128A150A200A128A110A128A15BC2470
:100158000A128A110318B128B228682801308316B8
:100168000313A907FF30290784000A128A150A20F9
:100178000A128A11BB00B000B1013108003A031914
:10018800C628EB293008003A0319FB29643A0319F9
:10019800D1280D3A0319D128EB2933088400831399
:1001A8000008B500840A0008B6000230B000300824
:1001B800B307B61FE028E128EA280330B00030086A
:1001C800B704B509B609B50A0319B60ABB01BB0AD3
:1001D8003B08B0003007013E84000A128A150A2045
:1001E8000A128A11B1000A128A150A200A128A1103
:1001F800B20032083602031D0329310835020318FC
:1002080006290729082912290130B0003008BB0740
:1002180005303B06031D11291229EC28380839043A
:1002280003191729182924293708033903191D29FF
:100238001E292429FF30B8070318B90AFF30B90767
:100248003908803A803C031D2B2938083B020318E3
:100258002E292F293B29831603133B08B000B1012F
:100268003008B8023108031CB903B9023F298316C4
:100278000313B801B901371D422943296E293708EC
:10028800033903194829492952293A0884002D308D
:10029800831380000130B0003008BA0738083904E9
:1002A80003195729582998293A08840030308313AC
:1002B80080000130B0003008BA07FF30B8070318D3
:1002C800B90AFF30B90738083904031D6C296D29AC
:1002D8005829982938083904031973297429892950
:1002E8003A0884002030831380000130B0003008C1
:1002F800BA07FF30B8070318B90AFF30B90738083A
:100308003904031D882989297429370803390319F1
:100318008E298F2998293A0884002D30831380006C
:100328000130B0003008BA073B08B400E2290A30AF
:10033800A3000030A4003408B0003007013E840058
:100348000A128A150A200A128A1183120313BD00A1
:100358000A128A150A200A128A11BE00831603138C
:10036800360883120313C00083160313350883125B
:100378000313BF000A128A15A1270A128A118312D1
:1003880003133E0883160313A600831203133D08C4
:1003980083160313A5000A128A157D260A128A11EC
:1003A800831603132308303EBB003A0884003B0839
:1003B800831380000130B0003008BA07FF30B00066
:1003C8003008B407340A031DEA29EB299B290130B8
:1003D800A907FF30290784000A128A150A200A1281
:1003E8008A11BB003B08031DFA29FB2928283A0873
:1003F800840083138001080083120313B1002130A5
:10040800AA00A92B2530320603190B2A0C2A162A12
:10041800310884003208831380000130A7002708C0
:10042800B107A92BAF01B001AE011F2A2E1501306B
:10043800A7002708A007200884000A128A150A20A6
:100448000A128A11A700A8012808003A03192D2AC0
:10045800322A2708303A03191A2A322A2008840037
:100468000A128A150A200A128A110A128A15AA245F
:100478000A128A11031C412A422A822A8312031370
:10048800AF01B0010A30F0000030F100831203130D
:100498003008F3002F08F2000A128A155B250A12A9
:1004A8008A11710883120313B0007008AF00200886
:1004B80084000A128A150A200A128A11D03EA7005F
:1004C800FF3003180030A8002708AF070318B00A48
:1004D8002808B0070130A7002708A00720088400D3
:1004E8000A128A150A200A128A110A128A15AA24DF
:1004F8000A128A110318812A822A462A0130831295
:100508000313A007FF30200784000A128A150A2067
:100518000A128A11B200A700A8012808003A031994
:10052800962AA92B2708003A0319B92B643A03190C
:10053800A12A0D3A0319A12AA92B2A08840083139A
:100548000008AC00840A0008AD000230A7002708A4
:10055800AA07AD1FB02AB12ABA2A0330A700270874
:10056800AE04AC09AD09AC0A0319AD0AB201B20A6E
:100578003208A7002707013E84000A128A150A20BC
:100588000A128A11A8000A128A150A200A128A1168
:10059800A90029082D02031DD32A28082C020318B4
:1005A800D62AD72AD82AE22A0130A7002708B20774
:1005B80005303206031DE12AE22ABC2A2F0830043E
:1005C8000319E72AE82AF42A2E0803390319ED2A21
:1005D800EE2AF42AFF30AF070318B00AFF30B0073D
:1005E8003008803A803C031DFB2A2F08320203188A
:1005F800FE2AFF2A0B2B831203133208A700A80137
:100608002708AF022808031CB003B0020F2B83127F
:100618000313AF01B0012E1D122B132B3E2B2E08F6
:1006280003390319182B192B222B310884002D307C
:10063800831380000130A7002708B1072F08300472
:100648000319272B282B682B31088400303083139B
:1006580080000130A7002708B107FF30AF07031853
:10066800B00AFF30B0072F083004031D3C2B3D2B88
:10067800282B682B2F0830040319432B442B592BA4
:10068800310884002030831380000130A700270838
:10069800B107FF30AF070318B00AFF30B0072F08C3
:1006A8003004031D582B592B442B2E0803390319EA
:1006B8005E2B5F2B682B310884002D30831380005C
:1006C8000130A7002708B1073208AB00A02B0A3079
:1006D800F8000030F9002B08A7002707013E840026
:1006E8000A128A150A200A128A11F0000A128A15BB
:1006F8000A200A128A11F1002D08F3002C08F200D2
:100708000A128A15B9260A128A117108FB007008A4
:10071800FA000A128A1507260A128A117808303E4A
:1007280083120313B2003108840032088313800057
:100738000130A7002708B107FF30A7002708AB073B
:100748002B0A031DA82BA92B6B2B0130A007FF3008
:10075800200784000A128A150A200A128A11B20098
:100768003208031DB82BB92B062A310884008313DD
:10077800800108000A128A15D0240A128A11003052
:1007880083120313BF00C0000A128A1538250A1203
:100798008A11C03083120313BD001230BE000A1242
:1007A8008A151A250A128A110A128A1546270A1268
:1007B8008A110A128A159D240A128A1183120313B8
:1007C800C101C10A01300A128A15A6250A128A1126
:1007D800353083120313C0008030C1000A128A1119
:1007E80041270A128A11083083120313C10001300D
:1007F8000A128A15A6250A128A112E3083120313AB
:10080800C0008030C1000A128A1141270A128A11D9
:1008180083120313490883160313AB0083120313CF
:10082800480883160313AA000030AC00AD00FF305F
:10083800AE000030AF000030B000B1006430B2004C
:100848000030B3000A128A15FD260A128A1183168F
:1008580003132B0883120313C500831603132A08F6
:1008680083120313C400643083160313A2000030FC
:10087800A300831203134508BE004408BD000530D9
:10088800BF000030C0000A128A15D0250A128A114A
:10089800831203133E0883160313A5008312031360
:1008A8003D0883160313A4000A128A11D0260A12DF
:1008B8008A1183160313220883120313CE000A3009
:1008C80083160313AA000030AB000A30A2000030E0
:1008D800A300831203134508BE004408BD00053079
:1008E800BF000030C0000A128A15D0250A128A11EA
:1008F800831203133E0883160313A5008312031300
:100908003D0883160313A4000A128A11D0260A127E
:100918008A11831603132308AD002208AC000A12BB
:100928008A11A5270A128A11831603132A0883122B
:100938000313CD000A3083160313AA000030AB005E
:10094800831203134508BE004408BD000530BF00EC
:100958000030C0000A128A15D0250A128A118312A3
:1009680003133E0883160313AD00831203133D08D7
:1009780083160313AC000A128A11A5270A128A11DA
:10098800831603132A0883120313CC00C101C10A7A
:1009980002300A128A15A6250A128A1125308316F2
:1009A8000313A900831203134E0883160313BC0014
:1009B800BD013C08AA003D08AB00831203134D0893
:1009C80083160313BE00BF013E08AC003F08AD000C
:1009D800831203134C0883160313C000C101400897
:1009E800AE004108AF004F300A128A1122200A12C5
:1009F8008A114F3083120313C0000030C1000A125D
:100A08008A1141270A128A11093083120313C1007F
:100A180002300A128A15A6250A128A113B3083165B
:100A28000313A90083120313430883160313AB00AF
:100A380083120313420883160313AA0052300A12C2
:100A48008A1122200A128A11523083120313C0001D
:100A58000030C1000A128A1141270A128A11831232
:100A680003139F18382D392D0C2C9F1441308316F1
:100A78000313BD00ED30BC00BC0B402DBD0B402D59
:100A8800452D0C2C0A128A111228831203133D08D3
:100A98003E04031D502D512D582DC3309F0583163C
:100AA8000317080801388800831203133D033E0426
:100AB800031D5F2D602D692D1F08C33904389F0061
:100AC80083160317080802388800023083120313BC
:100AD8003D063E04031D712D722D7B2D1F08C33961
:100AE80008389F0083160317080804388800033065
:100AF800831203133D063E04031D832D842D8D2D83
:100B08001F08C3390C389F008316031708080838D4
:100B180088000430831203133D063E04031D952DFF
:100B2800962D9F2D1F08C33910389F008316031771
:100B38000808103888000530831203133D063E0468
:100B4800031DA72DA82DB12D1F08C33914389F00E8
:100B58008316031708082038880006308312031309
:100B68003D063E04031DB92DBA2DC32D1F08C339F8
:100B780018389F0083160317080840388800073084
:100B8800831203133D063E04031DCB2DCC2DD52D1A
:100B98001F08C3391C389F008316031708088038BC
:100BA80088000830831203133D063E04031DDD2D23
:100BB800DE2DE72D1F08C33920389F008316031741
:100BC8000908013889000930831203133D063E04E1
:100BD800031DEF2DF02DF92D1F08C33924389F0070
:100BE800831603170908023889000A308312031391
:100BF8003D063E04031D012E022E0B2E1F08C3398D
:100C080028389F00831603170908043889000B3019
:100C1800831203133D063E04031D132E142E1D2EAE
:100C28001F08C3392C389F00831603170908083892
:100C380089000C30831203133D063E04031D252E44
:100C4800262E2F2E1F08C33930389F00831603170E
:100C58000908103889000D30831203133D063E043D
:100C6800031D372E382E412E1F08C33934389F00F4
:100C78008316031709082038890008000C1F452E21
:100C8800462E522E0A128A1593240A128A117108C6
:100C980083120313C9007008C8000C138C1E552E4C
:100CA800562EC32E8C122B301A06031D5C2E5D2E79
:100CB8006C2E420A4304031D622E632E662EC20167
:100CC800C3016C2E0130C2070318C30A0030C307E2
:100CD8002D301A06031D712E722E832E42084304EE
:100CE800031D772E782E7D2EFF30C2000030C30002
:100CF800832EFF30C2070318C30AFF30C3070D3025
:100D08001A06031D882E892EC32E0B30F000803062
:100D1800F1000A128A1580250A128A1125308312D9
:100D28000313A0004E08B300B4013308A10034082F
:100D3800A2004D08B500B6013508A3003608A40086
:100D48004C08B700B8013708A5003808A6004F308E
:100D58000A128A1100220A128A114F30F00000305C
:100D6800F1000A128A1580250A128A114030F00013
:100D78008030F1000A128A1580250A128A1183121E
:100D880003133C08FF003B088A003A088400390E28
:100D98008300FE0E7E0E090083160313A701A31F0E
:100DA800D62ED72EDE2EA209A309A20A0319A30A5A
:100DB800A701A70AA51FE12EE22EEF2EA409A50977
:100DC800A40A0319A50A013083120313C1004108BC
:100DD80083160313A706A801A901220823040319EF
:100DE800F62EF72E322FA601A60A092F013003107E
:100DF800A20DA30DFF3E031DFB2E0130831203132A
:100E0800C100410883160313A607A31F0C2F0D2F3B
:100E1800FA2E01300310A80DA90DFF3E031D0E2F59
:100E280023082502031D1A2F22082402031C1D2F44
:100E38001E2F252F2208A4022308031CA503A502A0
:100E4800281401300310A30CA20CFF3E031D262F0B
:100E58000130A602031D312F322F0D2F2708031949
:100E6800362F372F3C2FA809A909A80A0319A90A60
:100E78002908A3002808A200080083160313A30169
:100E8800A4017A2F83160313230883120313400740
:100E980083160313A1008312031341088316031357
:100EA800A0000318A00AA31F5A2FA0038316031338
:100EB8002008A200220883120313FF0083160313DD
:100EC80021088400831203130A128A1500200A12CB
:100ED8008A110A128A15E6240A128A110130831629
:100EE8000313A3070318A40A0030A40723088312D6
:100EF8000313400783160313A10083120313410849
:100F080083160313A0000318A00AA31F8C2FA003A5
:100F1800831603132008A200220883120313FF007C
:100F28008316031321088400831203130A128A15F7
:100F380000200A128A11003A031DA32FA42F462F5E
:100F4800080083160313B001AD1FAB2FAC2FB32FCE
:100F5800AC09AD09AC0A0319AD0AB001B00AAB1F60
:100F6800B62FB72FBC2FAA09AB09AA0A0319AB0AD7
:100F78002A082B040319C12FC22FF12FAF01AF0A82
:100F8800D02F01300310AA0DAB0DFF3E031DC62F55
:100F98000130AE002E08AF07AB1FD32FD42FC52FBB
:100FA8002B082D02031DDA2F2A082C02031CDD2F23
:100FB800DE2FE42F2A08AC022B08031CAD03AD0278
:100FC80001300310AB0CAA0CFF3E031DE52F0130C6
:100FD800AF02031DF02FF12FD42F30080319F52F7E
:100FE800F62FFB2FAC09AD09AC0A0319AD0A2D0881
:100FF800AB002C08AA000800FF1B0A2883137F18DF
:1010080083170008840A0319FF0A080008308A00B9
:101018000408840A82070034013400340A34003496
:1010280064340034E83403341034273456346F34CD
:101038006C34743461346A346534203450346F3419
:10104800743465346E34633469346F346D346534A4
:10105800743472346F343A3420340D340A34003422
:10106800253464342E3425346434253464345634B9
:10107800003443346F3475346E3474343A34003485
:1010880050346F34743431343A34003425343034C5
:0C1098003334643400340A340D34003466
:1019160064008001840A04060319003404068C2C32
:10192600831203131E08F200F3017208F000730815
:10193600F100080000300A128A15FE240A128A15E0
:1019460001300A128A15FE240A128A150800F100CF
:10195600F0013A3071020318B12CB22CBA2C303097
:101966007102031CB72CB82CBA2CF001F00A700CCB
:10197600080083120313BE00BD013A303E0203186D
:10198600C52CC62CCE2C30303E02031CCB2CCC2CC6
:10199600CE2CBD01BD0A3D0C08008316031386013B
:1019A6008701880183120313850186018701880157
:1019B60089018B170B17831603130F088F396038AD
:1019C6008F000F14080083120313BF0007163F0889
:1019D6000A128A1541260A128A15831203138716DC
:1019E6000C3083120313BE00BE0BF72C00008312CB
:1019F60003138712080083120313C000071240085E
:101A06000A128A1541260A128A15831203138716AB
:101A1600063083120313BF002F30BE00BE0B112DFC
:101A2600BF0B112D162D8312031387120800831680
:101A360003138C16C030831203133D0612300319AC
:101A46003E06031D272D282D372D0C308316031334
:101A56009900181283120313981783160313981606
:101A6600831203130C1218160800831603130C179F
:101A7600831203130C139F131F13831603139F1252
:101A86001F129F13831203134008BE003F08BD00B8
:101A96000A128A1149250A128A15831203131F1482
:101AA600203083120313C100C10B572D000008001C
:101AB600F401F501701C602D612D672D7208F40785
:101AC6000318F50A7308F50701300310F20DF30D3C
:101AD600FF3E031D682D01300310F10CF00CFF3E94
:101AE600031D6F2D70087104031D7A2D7B2D5D2D4E
:101AF6007508F1007408F0000800952D0C1E842D61
:101B0600852D812D7108FF00700884000A128A1540
:101B160000200A128A1599000130F0070318F10A0D
:101B26000030F107710883120313FF007008840068
:101B36000A128A1500200A128A15003A031DA42DDE
:101B4600A52D812D080083160313A0002003031D75
:101B5600AD2DAE2DBC2D8312031341087F3E831697
:101B66000313A10021080A128A15FE240A128A15F7
:101B7600CF2D02302006031DC12DC22DCF2D83127D
:101B860003134108BF3E83160313A10021080A125E
:101B96008A15FE240A128A15080083160313A0016B
:101BA600A10183123D1CD82DD92DE52D3F088316A2
:101BB6000313A0070318A10A831203134008831610
:101BC6000313A107013083120310BF0DC00DFF3EA2
:101BD600031DE72D01300310BE0CBD0CFF3E031D97
:101BE600EE2D3D083E04031DF92DFA2DD42D831646
:101BF6000313210883120313BE0083160313200860
:101C060083120313BD0008007808790403190C2E0B
:101C16000D2E3C2EFD01FD0A1B2E01300310F80D82
:101C2600F90DFF3E031D112E0130FC007C08FD0757
:101C3600F91F1E2E1F2E102E79087B02031D252E3E
:101C460078087A02031C282E292E2F2E7808FA02ED
:101C56007908031CFB03FB0201300310F90CF80C96
:101C6600FF3E031D302E0130FD02031D3B2E3C2E90
:101C76001F2E7B08F9007A08F80008008312031368
:101C8600BD003D1C472E482E4A2E08144B2E081028
:101C9600BD1C4E2E4F2E512E8814522E88103D1DDF
:101CA600552E562E582E0815592E0811BD1D5C2E80
:101CB6005D2E5F2E8815602E88113D1E632E642EC4
:101CC600662E0816672E0812BD1E6A2E6B2E6D2E06
:101CD60088166E2E88123D1F712E722E742E0817CE
:101CE600752E0813BD1F782E792E7B2E88177C2E15
:101CF6008813080083160313230824040319842E6B
:101D0600852EB42EA801A80A932E01300310A30D28
:101D1600A40DFF3E031D892E0130A7002708A80742
:101D2600A41F962E972E882E24082602031D9D2E6C
:101D360023082502031CA02EA12EA72E2308A502E8
:101D46002408031CA603A60201300310A40CA30C4E
:101D5600FF3E031DA82E0130A802031DB32EB42E8C
:101D6600972E2608A4002508A3000800F501F60111
:101D7600700871040319C02EC12EF82EF701F70A58
:101D8600CF2E01300310F00DF10DFF3E031DC52EC1
:101D96000130F4007408F707F11FD22ED32EC42E9B
:101DA60001300310F50DF60DFF3E031DD42E71080C
:101DB6007302031DE02E70087202031CE32EE42E4C
:101DC600EB2E7008F2027108031CF303F30275147C
:101DD60001300310F10CF00CFF3E031DEC2E013018
:101DE600F702031DF72EF82ED32E7608F10075089C
:101DF600F0000800831603132C082E02A2002D08FB
:101E0600031C2D0A2F02A3002C082A028312031397
:101E1600BD00831603132D08031C2D0A2B02831203
:101E26000313BE0083160313300832028312031312
:101E3600BF00831603133108031C310A33028312D1
:101E46000313C0000A128A15D0250A128A158312B6
:101E560003133E0883160313A500831203133D08DC
:101E660083160313A4000A128A11D0260A128A15B1
:101E76008316031330082207AA0031080318310A13
:101E86002307AB00080000300A128A1541260A1201
:101E96008A151A3083160313A100F730A000A00B91
:101EA600522FA10B522F572F30300A128A15FE24BB
:101EB6000A128A15073083160313A1007C30A0008E
:101EC600A00B632FA10B632F000030300A128A1576
:101ED600FE240A128A15413083160313A000A00BB4
:101EE600722F752F30300A128A15FE240A128A15AF
:101EF60038300A128A15FE240A128A1508300A1288
:101F06008A15FE240A128A1501300A128A15FE2441
:101F16000A128A1506300A128A15FE240A128A1532
:101F26000C300A128A15FE240A128A1520308316EE
:101F36000313A000A00B9D2F0000080083160313B7
:101F4600A101A201831203133D083E040319AC2F1D
:101F5600AD2FF32F83160313A001A00ABF2F013064
:101F66000310BD0DBE0DFF3E031DB32F0130C10092
:101F7600410883160313A00783120313BE1FC42F41
:101F8600C52FB22F0130831603130310A10DA20D26
:101F9600FF3E031DC82F831203133E084002031D94
:101FA600D62F3D083F02031CD92FDA2FE32F3D0819
:101FB600BF023E08031CC003C0028316031321148C
:101FC600013083120310BE0CBD0CFF3E031DE52F2E
:101FD600013083160313A002031DF22FF32FC52F22
:101FE60083160313220883120313BE0083160313FA
:0A1FF600210883120313BD00080048
:08400000FF3FFF3FFF3FFF3FC0
:04400E00D420FF3F7C
:00000001FF
