:060000000A128A110C280F
:10000800FE00030EF4000A08F5000A128A11E62B16
:100018000A128A110F28F601F701F801F901831273
:100028000313B201B30183010A128A11142983123E
:10003800031320082104031D222823282A28C3305B
:100048009F058316031708080138880083120313D5
:1000580020032104031D312832283B281F08C339F7
:1000680004389F00831603170808023888000230F6
:100078008312031320062104031D432844284D2816
:100088001F08C33908389F00831603170808043867
:10009800880003308312031320062104031D55280A
:1000A80056285F281F08C3390C389F00831603178A
:1000B8000808083888000430831203132006210436
:1000C800031D6728682871281F08C33910389F0046
:1000D80083160317080810388800053083120313A5
:1000E80020062104031D79287A2883281F08C3398C
:1000F80014389F0083160317080820388800063034
:100108008312031320062104031D8B288C289528AD
:100118001F08C33918389F0083160317080840388A
:10012800880007308312031320062104031D9D282D
:100138009E28A7281F08C3391C389F008316031759
:100148000808803888000830831203132006210429
:10015800031DAF28B028B9281F08C33920389F00CD
:10016800831603170908013889000930831203131D
:1001780020062104031DC128C228CB281F08C33923
:1001880024389F00831603170908023889000A30AB
:100198008312031320062104031DD328D428DD2845
:1001A8001F08C33928389F00831603170908043825
:1001B80089000B308312031320062104031DE52850
:1001C800E628EF281F08C3392C389F008316031729
:1001D8000908083889000C3083120313200621040B
:1001E800031DF728F82801291F08C33930389F0054
:1001F800831603170908103889000D30831203137A
:1002080020062104031D09290A2913291F08C339B7
:1002180034389F008316031709082038890008001E
:100228000A128A11FF230A128A110030831203135B
:10023800A200A3000A128A1187230A128A110A123D
:100248008A111C220A128A110A128A1113240A120C
:100258008A1183120313A401A40A01300A128A1115
:10026800D9220A128A1101300A128A115E230A124F
:100278008A1183120313A401A40A02300A128A11F4
:10028800D9220A128A11643083120313A0000030A5
:10029800A1003308A3003208A2000A128A11B32170
:1002A8000A128A11831203132008303E0A128A1197
:1002B80025230A128A110A3083120313A900003079
:1002C800AA000A30A0000030A1003308A3003208B9
:1002D800A2000A128A11B3210A128A118312031387
:1002E8002108AC002008AB000A128A117E220A12EB
:1002F8008A11831203132908303E0A128A11252312
:100308000A128A110A3083120313A9000030AA00C6
:100318003308AC003208AB000A128A117E220A1296
:100328008A11831203132908303E0A128A112523E1
:100338000A128A11831203139F18A329A4293D299D
:100348009F14823083120313B100DD30B000B00B6C
:10035800AB29B10BAB293D290A128A110C2883124B
:100368000313A601A11FB929BA29C129A009A10906
:10037800A00A0319A10AA601A60AA31FC429C52910
:10038800CE29A209A309A20A0319A30A0130A400CD
:100398002408A606A701A801200821040319D529C5
:1003A800D6290D2AA501A50AE42901300310A00DBC
:1003B800A10DFF3E031DDA290130A4002408A5077A
:1003C800A11FE729E829D92901300310A70DA80D95
:1003D800FF3E031DE92921082302031DF5292008F2
:1003E8002202031CF829F929002A2008A202210860
:1003F800031CA303A302271401300310A10CA00CB3
:10040800FF3E031D012A0130A502031D0C2A0D2AF7
:10041800E82926080319112A122A172AA709A80960
:10042800A70A0319A80A2808A1002708A00008009D
:1004380000300A128A11AA230A128A113430831250
:100448000313A500F130A400A40B282AA50B282A21
:1004580003300A128A11CA230A128A110D30831234
:100468000313A500FB30A400A40B382AA50B382AD7
:1004780003300A128A11CA230A128A111D30831204
:100488000313A5009030A400A40B482AA50B482A02
:10049800000003300A128A11CA230A128A11023094
:1004A8000A128A11CA230A128A1102300A128A1100
:1004B800CA230A128A1108300A128A11CA230A1298
:1004C8008A1100300A128A11CA230A128A110C30C2
:1004D8000A128A11CA230A128A1100300A128A11D2
:1004E800CA230A128A1106300A128A11CA230A126A
:1004F8008A11080083120313AF01AC1F842A852ACE
:100508008C2AAB09AC09AB0A0319AC0AAF01AF0AD4
:10051800AA1F8F2A902A952AA909AA09A90A0319A4
:10052800AA0A29082A0403199A2A9B2ACA2AAE0168
:10053800AE0AA92A01300310A90DAA0DFF3E031D1A
:100548009F2A0130AD002D08AE07AA1FAC2AAD2A9C
:100558009E2A2A082C02031DB32A29082B02031CF1
:10056800B62AB72ABD2A2908AB022A08031CAC03FD
:10057800AC0201300310AA0CA90CFF3E031DBE2AD1
:100588000130AE02031DC92ACA2AAD2A2F08031951
:10059800CE2ACF2AD42AAB09AC09AB0A0319AC0A74
:1005A8002C08AA002B08A900080083120313A60030
:1005B8002603031DE02AE12A002B24087F3EA90018
:1005C8002908A50004300310A50CFF3E031DE72AE7
:1005D8002508A70029080F39A80027080A128A1138
:1005E800CA230A128A118312031328080A128A11CD
:1005F800CA230A128A11242B02302606031D052B52
:10060800062B242B2408BF3EA9002908A500043086
:100618000310A50CFF3E031D0C2B2508A700290875
:100628000F39A80027080A128A11CA230A128A1148
:100638008312031328080A128A11CA230A128A117C
:10064800080083120313A40024080F39A200240809
:10065800F039A30008152308A10004300310A10CE9
:10066800FF3E031D322B21080A128A11AA230A12FF
:100678008A11831203138815193083120313A100FA
:10068800A10B442B472B83120313881122080A124B
:100698008A11AA230A128A118312031388151930A2
:1006A80083120313A100A10B572B5A2B8312031398
:1006B8008811080083120313A500A601A701792B4E
:1006C8002608250784000A128A1120240A128A1192
:1006D8000A128A1125230A128A1101308312031380
:1006E800A6070318A70A0030A707260825078400CD
:1006F8000A128A1120240A128A11003A031D852B36
:10070800862B642B0800831603130C17831203131C
:100718000C139F131F13831603139F121F129F138B
:10072800831203132308A1002208A0000A128A11C9
:100738001B200A128A11831203131F1441308312DB
:100748000313A400A40BA62BA92B080083120313E0
:10075800A000201CB02BB12BB32B0816B42B081209
:10076800A01CB72BB82BBA2B8816BB2B8812201DC0
:10077800BE2BBF2BC12B0817C22B0813A01DC52BDE
:10078800C62BC82B8817C92B88130800831203139C
:10079800A300081123080A128A11AA230A128A112F
:1007A8008312031388150B3083120313A2006130E0
:1007B800A100A10BDD2BA20BDD2BE22B831203136F
:1007C80088110800831203130C1FEB2BEC2BF82B5A
:1007D8000A128A112A240A128A1171088312031331
:1007E800B3007008B2000C1375088A00740E8300F9
:1007F800FE0E7E0E09008316031387018801890106
:1008080083120313850186018701880189018B17EB
:100818000B177030831603138F040F140800003071
:100828000A128A11CA230A128A1101300A128A117D
:10083800CA230A128A11080004308A000408840AAC
:1008480082070034413444344334003483120313A0
:100858001E08F200F3017208F0007308F1000800A6
:08400000FF3FFF3FFF3FFF3FC0
:04400E00D420FF3F7C
:00000001FF
