:060000000A128A110C280F
:10000800FE00030EF4000A08F5000A128A11072EF2
:100018000A128A110F28F601F701F801F901831273
:100028000313C501C601C701C801C901CA01CB0133
:10003800CC01CD01CE0183010A128A1123280A12AC
:100048008A1138260A128A11003083120313A2007B
:10005800A3000A128A11A6250A128A110A128A1105
:10006800C2230A128A110A128A114E260A128A110A
:1000780083120313A401A40A01300A128A11C925A4
:100088000A128A11143083120313A3008030A400CB
:100098000A128A1163240A128A11FF308312031389
:1000A80086004808B0004708AF000030B100B20031
:1000B800FF30B3000030B4000030B500B600643043
:1000C800B7000030B8000A128A1121250A128A11D5
:1000D800831203133008C6002F08C5006430A60039
:1000E8000030A7004608A1004508A0000530A2007E
:1000F8000030A3000A128A117F250A128A1183127E
:1001080003132108A9002008A8000A128A11FE2258
:100118000A128A11831203132608CB000A30AF0093
:100128000030B0000A30A6000030A7004608A10041
:100138004508A0000530A2000030A3000A128A1169
:100148007F250A128A11831203132108A9002008A7
:10015800A8000A128A11FE220A128A1183120313B6
:100168002708B2002608B1000A128A1167230A126A
:100178008A11831203132F08CA000A30AF00003017
:10018800B0004608A1004508A0000530A2000030D4
:10019800A3000A128A117F250A128A1183120313F7
:1001A8002108B2002008B1000A128A1167230A1236
:1001B8008A11831203132F08C900A401A40A02306C
:1001C8000A128A11C9250A128A110B3083120313E5
:1001D800AE004B08BF00C0013F08AF004008B000A8
:1001E8004A08C100C2014108B1004208B2004908EA
:1001F800C300C4014308B3004408B4004C300A12D9
:100208008A1122220A128A114C3083120313A30086
:100218000030A4000A128A1163240A128A11831278
:1002280003139F181829192951289F144130831244
:100238000313C000ED30BF00BF0B2029C00B2029DD
:10024800252951280A128A110C2883120313200821
:100258002104031D302931293829C3309F0583160D
:1002680003170808013888008312031320032104A8
:10027800031D3F29402949291F08C33904389F0015
:100288008316031708080238880002308312031304
:1002980020062104031D512952295B291F08C3394F
:1002A80008389F00831603170808043888000330AD
:1002B8008312031320062104031D632964296D2971
:1002C8001F08C3390C389F0083160317080808381D
:1002D800880004308312031320062104031D7529A6
:1002E80076297F291F08C33910389F008316031702
:1002F80008081038880005308312031320062104EB
:10030800031D8729882991291F08C33914389F009C
:100318008316031708082038880006308312031351
:1003280020062104031D99299A29A3291F08C339E6
:1003380018389F00831603170808403888000730CC
:100348008312031320062104031DAB29AC29B52908
:100358001F08C3391C389F00831603170808803804
:10036800880008308312031320062104031DBD29C9
:10037800BE29C7291F08C33920389F0083160317D1
:100388000908013889000930831203132006210463
:10039800031DCF29D029D9291F08C33924389F0024
:1003A800831603170908023889000A3083120313D9
:1003B80020062104031DE129E229EB291F08C3397E
:1003C80028389F00831603170908043889000B3062
:1003D8008312031320062104031DF329F429FD29A0
:1003E8001F08C3392C389F008316031709080838DB
:1003F80089000C308312031320062104031D052AEB
:10040800062A0F2A1F08C33930389F00831603179E
:100418000908103889000D308312031320062104BF
:10042800031D172A182A212A1F08C33934389F00A8
:10043800831603170908203889000800831203135C
:10044800BD002F30B800E92A25303E0603192D2AB1
:100458002E2A382A3D0884003E0883138000013084
:10046800B5003508BD07E92AB9010130AE07FF30EC
:100478002E0784000A128A1160250A128A11BE000A
:10048800B500B6013608003A03194B2AE92A35089F
:10049800003A0319F92A643A0319562A0D3A03193E
:1004A800562AE92A3808840083130008BB00840A06
:1004B8000008BC000230B5003508B807BC1F652A23
:1004C800662A6F2A0330B5003508B904BB09BC0990
:1004D800BB0A0319BC0ABE01BE0A3E08B5003507AF
:1004E800013E84000A128A1160250A128A11B60098
:1004F8000A128A1160250A128A11B70037083C02CD
:10050800031D882A36083B0203188B2A8C2A8D2A59
:10051800972A0130B5003508BE0705303E06031D91
:10052800962A972A712A3908033903199C2A9D2A81
:10053800A62A3D0884002D30831380000130B500C1
:100548003508BD073E08BA00E02A0A30A800003086
:10055800A9003A08B5003507013E84000A128A113D
:1005680060250A128A11A0000A128A1160250A124F
:100578008A11A1003C08A3003B08A2000A128A11B4
:100588001D240A128A11831203132108AB002008C4
:10059800AA000A128A11A9240A128A1183120313C3
:1005A8002808303EBE003D0884003E0883138000C2
:1005B8000130B5003508BD07FF30B5003508BA076A
:1005C8003A0A031DE82AE92AA92A0130AE07FF30B2
:1005D8002E0784000A128A1160250A128A11BE00A9
:1005E8003E08031DF82AF92A282A3D0884008313A7
:1005F8008001080083120313AC01A71F042B052BED
:100608000C2BA609A709A60A0319A70AAC01AC0A6C
:10061800A91F0F2B102B192BA809A909A80A031920
:10062800A90A0130AA002A08AC06AD01AE012608C5
:1006380027040319202B212B582BAB01AB0A2F2B96
:1006480001300310A60DA70DFF3E031D252B013019
:10065800AA002A08AB07A71F322B332B242B013003
:100668000310AD0DAE0DFF3E031D342B27082902E4
:10067800031D402B26082802031C432B442B4B2B1D
:100688002608A8022708031CA903A9022D14013073
:100698000310A70CA60CFF3E031D4C2B0130AB0228
:1006A800031D572B582B332B2C0803195C2B5D2B60
:1006B800622BAD09AE09AD0A0319AE0A2E08A700D0
:1006C8002D08A600080083120313B501B21F6D2B75
:1006D8006E2B752BB109B209B10A0319B20AB5011B
:1006E800B50AB01F782B792B7E2BAF09B009AF0A5A
:1006F8000319B00A2F0830040319832B842BB32B5A
:10070800B401B40A922B01300310AF0DB00DFF3EB7
:10071800031D882B0130B3003308B407B01F952B95
:10072800962B872B30083202031D9C2B2F08310291
:10073800031C9F2BA02BA62B2F08B1023008031CEB
:10074800B203B20201300310B00CAF0CFF3E031D20
:10075800A72B0130B402031DB22BB32B962B3508FF
:100768000319B72BB82BBD2BB109B209B10A03196C
:10077800B20A3208B0003108AF00080000300A128F
:100788008A11E5240A128A111A3083120313A5006C
:10079800F730A400A40BCE2BA50BCE2BD32B3030D7
:1007A8000A128A11EB250A128A11073083120313E1
:1007B800A5007C30A400A40BDF2BA50BDF2B0000C9
:1007C80030300A128A11EB250A128A11413083123D
:1007D8000313A400A40BEE2BF12B30300A128A115C
:1007E800EB250A128A1138300A128A11EB250A12EF
:1007F8008A1108300A128A11EB250A128A1101306F
:100808000A128A11EB250A128A1106300A128A1175
:10081800EB250A128A110C300A128A11EB250A12EA
:100828008A11203083120313A400A40B192C000092
:10083800080083120313A601A70120082104031945
:10084800262C272C5E2CA501A50A352C0130031077
:10085800A00DA10DFF3E031D2B2C0130A400240880
:10086800A507A11F382C392C2A2C01300310A60DFE
:10087800A70DFF3E031D3A2C21082302031D462C19
:1008880020082202031C492C4A2C512C2008A202C1
:100898002108031CA303A302261401300310A10C92
:1008A800A00CFF3E031D522C0130A502031D5D2C38
:1008B8005E2C392C2708A1002608A0000800831206
:1008C8000313A801A9018C2C28082307A6002408D3
:1008D800A5000318A50AA81F722CA50383120313E9
:1008E8002508A7002708FF00260884000A128A1195
:1008F80056250A128A110A128A1120260A128A110A
:10090800013083120313A8070318A90A0030A907A6
:1009180028082307A6002408A5000318A50AA81F6D
:10092800962CA503831203132508A7002708FF00A8
:10093800260884000A128A1156250A128A11003ADA
:10094800031DA72CA82C682C080083120313280861
:1009580029040319B02CB12CE02CAD01AD0ABF2C31
:1009680001300310A80DA90DFF3E031DB52C013061
:10097800AC002C08AD07A91FC22CC32CB42C290825
:100988002B02031DC92C28082A02031CCC2CCD2CB1
:10099800D32C2808AA022908031CAB03AB02013098
:1009A8000310A90CA80CFF3E031DD42C0130AD0286
:1009B800031DDF2CE02CC32C2B08A9002A08A80053
:1009C800080083120313A000201CEB2CEC2CEE2C47
:1009D8000814EF2C0810A01CF22CF32CF52C88140A
:1009E800F62C8810201DF92CFA2CFC2C0815FD2C4F
:1009F8000811A01D002D012D032D8815042D881127
:100A0800201E072D082D0A2D08160B2D0812A01ED2
:100A18000E2D0F2D112D8816122D8812201F152D21
:100A2800162D182D0817192D0813A01F1C2D1D2D64
:100A38001F2D8817202D88130800831203133108EF
:100A48003302A6003208031C320A3402A700310818
:100A58002F02A0003208031C320A3002A100350818
:100A68003702A2003608031C360A3802A3000A120D
:100A78008A117F250A128A11831203132108A900FB
:100A88002008A8000A128A11FE220A128A1183126B
:100A9800031335082607AF0036080318360A270758
:100AA800B0000800FF1B602D83137F188317000810
:100AB800840A0319FF0A080005308A000408840A1A
:100AC80082070034013400340A34003464340034BA
:100AD800E834033410342734253464342E34253470
:100AE8006434253464345634003450346F347434E8
:100AF80031343A34003483120313A401A501201CB5
:100B0800862D872D8D2D2208A4070318A50A2308F2
:100B1800A50701300310A20DA30DFF3E031D8E2D66
:100B280001300310A10CA00CFF3E031D952D2008D9
:100B38002104031DA02DA12D832D2508A100240823
:100B4800A0000800831603130C17831203130C1359
:100B58009F131F13831603139F121F129F138312D1
:100B680003132308A1002208A0000A128A112921D0
:100B78000A128A11831203131F14203083120313DD
:100B8800A400A40BC52D0000080083120313A500C0
:100B98002503031DD02DD12DDB2D24087F3EA60073
:100BA80026080A128A11EB250A128A11EA2D023048
:100BB8002506031DE02DE12DEA2D2408BF3EA600E1
:100BC80026080A128A11EB250A128A1108008312D4
:100BD8000313A300071223080A128A11E5240A1234
:100BE8008A11831203138716063083120313A20097
:100BF8002F30A100A10BFE2DA20BFE2D032E831278
:100C0800031387120800831203130C1F0C2E0D2EDA
:100C1800192E0A128A115B260A128A117108831288
:100C28000313C8007008C7000C1375088A00740EF7
:100C38008300FE0E7E0E090083120313A20007161E
:100C480022080A128A11E5240A128A118312031350
:100C580087160C3083120313A100A10B312E00005C
:100C68008312031387120800831603138601870172
:100C78008801831203138501860187018801890190
:100C88008B170B17831603130F088F3960388F00E3
:100C98000F14080000300A128A11EB250A128A1173
:100CA80001300A128A11EB250A128A1108008312F0
:100CB80003131E08F200F3017208F0007308F10034
:020CC800080022
:08400000FF3FFF3FFF3FFF3FC0
:04400E00D420FF3F7C
:00000001FF
